{
  "contractName": "TrustlessFund",
  "abi": [
    {
      "inputs": [
        {
          "internalType": "uint256",
          "name": "_expiration",
          "type": "uint256"
        },
        {
          "internalType": "address",
          "name": "_beneficiary",
          "type": "address"
        },
        {
          "internalType": "address",
          "name": "_owner",
          "type": "address"
        }
      ],
      "payable": false,
      "stateMutability": "nonpayable",
      "type": "constructor"
    },
    {
      "anonymous": false,
      "inputs": [
        {
          "indexed": true,
          "internalType": "address",
          "name": "previousOwner",
          "type": "address"
        },
        {
          "indexed": true,
          "internalType": "address",
          "name": "newOwner",
          "type": "address"
        }
      ],
      "name": "OwnershipTransferred",
      "type": "event"
    },
    {
      "constant": true,
      "inputs": [],
      "name": "beneficiary",
      "outputs": [
        {
          "internalType": "address",
          "name": "",
          "type": "address"
        }
      ],
      "payable": false,
      "stateMutability": "view",
      "type": "function"
    },
    {
      "constant": true,
      "inputs": [],
      "name": "expiration",
      "outputs": [
        {
          "internalType": "uint256",
          "name": "",
          "type": "uint256"
        }
      ],
      "payable": false,
      "stateMutability": "view",
      "type": "function"
    },
    {
      "constant": true,
      "inputs": [],
      "name": "isOwner",
      "outputs": [
        {
          "internalType": "bool",
          "name": "",
          "type": "bool"
        }
      ],
      "payable": false,
      "stateMutability": "view",
      "type": "function"
    },
    {
      "constant": true,
      "inputs": [],
      "name": "owner",
      "outputs": [
        {
          "internalType": "address",
          "name": "",
          "type": "address"
        }
      ],
      "payable": false,
      "stateMutability": "view",
      "type": "function"
    },
    {
      "constant": false,
      "inputs": [],
      "name": "renounceOwnership",
      "outputs": [],
      "payable": false,
      "stateMutability": "nonpayable",
      "type": "function"
    },
    {
      "constant": false,
      "inputs": [
        {
          "internalType": "address",
          "name": "newOwner",
          "type": "address"
        }
      ],
      "name": "transferOwnership",
      "outputs": [],
      "payable": false,
      "stateMutability": "nonpayable",
      "type": "function"
    },
    {
      "constant": false,
      "inputs": [
        {
          "internalType": "uint256",
          "name": "_amount",
          "type": "uint256"
        },
        {
          "internalType": "address",
          "name": "_token",
          "type": "address"
        }
      ],
      "name": "deposit",
      "outputs": [],
      "payable": true,
      "stateMutability": "payable",
      "type": "function"
    },
    {
      "constant": false,
      "inputs": [
        {
          "internalType": "uint256",
          "name": "_amount",
          "type": "uint256"
        },
        {
          "internalType": "address",
          "name": "_token",
          "type": "address"
        }
      ],
      "name": "withdraw",
      "outputs": [],
      "payable": false,
      "stateMutability": "nonpayable",
      "type": "function"
    },
    {
      "constant": false,
      "inputs": [
        {
          "internalType": "uint256",
          "name": "_newExpiration",
          "type": "uint256"
        }
      ],
      "name": "increaseTime",
      "outputs": [],
      "payable": false,
      "stateMutability": "nonpayable",
      "type": "function"
    },
    {
      "constant": false,
      "inputs": [
        {
          "internalType": "address",
          "name": "_newBeneficiary",
          "type": "address"
        }
      ],
      "name": "updateBeneficiary",
      "outputs": [],
      "payable": false,
      "stateMutability": "nonpayable",
      "type": "function"
    }
  ],
  "bytecode": "0x60806040523480156200001157600080fd5b506040516200165938038062001659833981810160405260608110156200003757600080fd5b8101908080519060200190929190805190602001909291908051906020019092919050505060006200006e6200016e60201b60201c565b9050806000806101000a81548173ffffffffffffffffffffffffffffffffffffffff021916908373ffffffffffffffffffffffffffffffffffffffff1602179055508073ffffffffffffffffffffffffffffffffffffffff16600073ffffffffffffffffffffffffffffffffffffffff167f8be0079c531659141344cd1fd0a4f28419497f9722a3daafe3b4186f6b6457e060405160405180910390a3508260018190555081600260006101000a81548173ffffffffffffffffffffffffffffffffffffffff021916908373ffffffffffffffffffffffffffffffffffffffff16021790555062000165816200017660201b60201c565b505050620003b9565b600033905090565b620001866200020d60201b60201c565b620001f9576040517f08c379a00000000000000000000000000000000000000000000000000000000081526004018080602001828103825260208152602001807f4f776e61626c653a2063616c6c6572206973206e6f7420746865206f776e657281525060200191505060405180910390fd5b6200020a816200027360201b60201c565b50565b60008060009054906101000a900473ffffffffffffffffffffffffffffffffffffffff1673ffffffffffffffffffffffffffffffffffffffff16620002576200016e60201b60201c565b73ffffffffffffffffffffffffffffffffffffffff1614905090565b600073ffffffffffffffffffffffffffffffffffffffff168173ffffffffffffffffffffffffffffffffffffffff161415620002fb576040517f08c379a0000000000000000000000000000000000000000000000000000000008152600401808060200182810382526026815260200180620016336026913960400191505060405180910390fd5b8073ffffffffffffffffffffffffffffffffffffffff166000809054906101000a900473ffffffffffffffffffffffffffffffffffffffff1673ffffffffffffffffffffffffffffffffffffffff167f8be0079c531659141344cd1fd0a4f28419497f9722a3daafe3b4186f6b6457e060405160405180910390a3806000806101000a81548173ffffffffffffffffffffffffffffffffffffffff021916908373ffffffffffffffffffffffffffffffffffffffff16021790555050565b61126a80620003c96000396000f3fe6080604052600436106100905760003560e01c80636e553f65116100595780636e553f65146101fe578063715018a61461024c5780638da5cb5b146102635780638f32d59b146102ba578063f2fde38b146102e957610090565b8062f714ce146100955780630aaffd2a146100f057806338af3eed146101415780633c9a2a1a146101985780634665096d146101d3575b600080fd5b3480156100a157600080fd5b506100ee600480360360408110156100b857600080fd5b8101908080359060200190929190803573ffffffffffffffffffffffffffffffffffffffff16906020019092919050505061033a565b005b3480156100fc57600080fd5b5061013f6004803603602081101561011357600080fd5b81019080803573ffffffffffffffffffffffffffffffffffffffff1690602001909291905050506108ea565b005b34801561014d57600080fd5b50610156610a6c565b604051808273ffffffffffffffffffffffffffffffffffffffff1673ffffffffffffffffffffffffffffffffffffffff16815260200191505060405180910390f35b3480156101a457600080fd5b506101d1600480360360208110156101bb57600080fd5b8101908080359060200190929190505050610a92565b005b3480156101df57600080fd5b506101e8610b8d565b6040518082815260200191505060405180910390f35b61024a6004803603604081101561021457600080fd5b8101908080359060200190929190803573ffffffffffffffffffffffffffffffffffffffff169060200190929190505050610b93565b005b34801561025857600080fd5b50610261610e4f565b005b34801561026f57600080fd5b50610278610f88565b604051808273ffffffffffffffffffffffffffffffffffffffff1673ffffffffffffffffffffffffffffffffffffffff16815260200191505060405180910390f35b3480156102c657600080fd5b506102cf610fb1565b604051808215151515815260200191505060405180910390f35b3480156102f557600080fd5b506103386004803603602081101561030c57600080fd5b81019080803573ffffffffffffffffffffffffffffffffffffffff16906020019092919050505061100f565b005b42600154106103b1576040517f08c379a00000000000000000000000000000000000000000000000000000000081526004018080602001828103825260188152602001807f636f6e7472616374206973207374696c6c206c6f636b6564000000000000000081525060200191505060405180910390fd5b600260009054906101000a900473ffffffffffffffffffffffffffffffffffffffff1673ffffffffffffffffffffffffffffffffffffffff163373ffffffffffffffffffffffffffffffffffffffff1614610457576040517f08c379a000000000000000000000000000000000000000000000000000000000815260040180806020018281038252602e815260200180611208602e913960400191505060405180910390fd5b600073ffffffffffffffffffffffffffffffffffffffff168173ffffffffffffffffffffffffffffffffffffffff1614156106315781471015610502576040517f08c379a00000000000000000000000000000000000000000000000000000000081526004018080602001828103825260128152602001807f6e6f7420656e6f7567682062616c616e6365000000000000000000000000000081525060200191505060405180910390fd5b81600360008373ffffffffffffffffffffffffffffffffffffffff1673ffffffffffffffffffffffffffffffffffffffff1681526020019081526020016000206000828254039250508190555060003373ffffffffffffffffffffffffffffffffffffffff168360405180600001905060006040518083038185875af1925050503d80600081146105af576040519150601f19603f3d011682016040523d82523d6000602084013e6105b4565b606091505b505090508061062b576040517f08c379a00000000000000000000000000000000000000000000000000000000081526004018080602001828103825260108152602001807f5472616e73666572206661696c65642e0000000000000000000000000000000081525060200191505060405180910390fd5b506108e6565b6000819050828173ffffffffffffffffffffffffffffffffffffffff166370a08231306040518263ffffffff1660e01b8152600401808273ffffffffffffffffffffffffffffffffffffffff1673ffffffffffffffffffffffffffffffffffffffff16815260200191505060206040518083038186803b1580156106b457600080fd5b505afa1580156106c8573d6000803e3d6000fd5b505050506040513d60208110156106de57600080fd5b81019080805190602001909291905050501015610763576040517f08c379a00000000000000000000000000000000000000000000000000000000081526004018080602001828103825260128152602001807f6e6f7420656e6f7567682062616c616e6365000000000000000000000000000081525060200191505060405180910390fd5b82600360008473ffffffffffffffffffffffffffffffffffffffff1673ffffffffffffffffffffffffffffffffffffffff168152602001908152602001600020600082825403925050819055508073ffffffffffffffffffffffffffffffffffffffff1663a9059cbb33856040518363ffffffff1660e01b8152600401808373ffffffffffffffffffffffffffffffffffffffff1673ffffffffffffffffffffffffffffffffffffffff16815260200182815260200192505050602060405180830381600087803b15801561083757600080fd5b505af115801561084b573d6000803e3d6000fd5b505050506040513d602081101561086157600080fd5b81019080805190602001909291905050506108e4576040517f08c379a000000000000000000000000000000000000000000000000000000000815260040180806020018281038252600f8152602001807f7472616e73666572206661696c6564000000000000000000000000000000000081525060200191505060405180910390fd5b505b5050565b6108f2610fb1565b610964576040517f08c379a00000000000000000000000000000000000000000000000000000000081526004018080602001828103825260208152602001807f4f776e61626c653a2063616c6c6572206973206e6f7420746865206f776e657281525060200191505060405180910390fd5b600260009054906101000a900473ffffffffffffffffffffffffffffffffffffffff1673ffffffffffffffffffffffffffffffffffffffff168173ffffffffffffffffffffffffffffffffffffffff161415610a28576040517f08c379a00000000000000000000000000000000000000000000000000000000081526004018080602001828103825260108152602001807f73616d652062656e65666963696172790000000000000000000000000000000081525060200191505060405180910390fd5b80600260006101000a81548173ffffffffffffffffffffffffffffffffffffffff021916908373ffffffffffffffffffffffffffffffffffffffff16021790555050565b600260009054906101000a900473ffffffffffffffffffffffffffffffffffffffff1681565b610a9a610fb1565b610b0c576040517f08c379a00000000000000000000000000000000000000000000000000000000081526004018080602001828103825260208152602001807f4f776e61626c653a2063616c6c6572206973206e6f7420746865206f776e657281525060200191505060405180910390fd5b6001548111610b83576040517f08c379a000000000000000000000000000000000000000000000000000000000815260040180806020018281038252601c8152602001807f63616e206f6e6c7920696e6372656173652065787069726174696f6e0000000081525060200191505060405180910390fd5b8060018190555050565b60015481565b600073ffffffffffffffffffffffffffffffffffffffff168173ffffffffffffffffffffffffffffffffffffffff161415610c8f57813414610c3d576040517f08c379a00000000000000000000000000000000000000000000000000000000081526004018080602001828103825260108152602001807f696e636f727265637420616d6f756e740000000000000000000000000000000081525060200191505060405180910390fd5b81600360008373ffffffffffffffffffffffffffffffffffffffff1673ffffffffffffffffffffffffffffffffffffffff16815260200190815260200160002060008282540192505081905550610e4b565b60008190508073ffffffffffffffffffffffffffffffffffffffff166323b872dd3330866040518463ffffffff1660e01b8152600401808473ffffffffffffffffffffffffffffffffffffffff1673ffffffffffffffffffffffffffffffffffffffff1681526020018373ffffffffffffffffffffffffffffffffffffffff1673ffffffffffffffffffffffffffffffffffffffff1681526020018281526020019350505050602060405180830381600087803b158015610d4f57600080fd5b505af1158015610d63573d6000803e3d6000fd5b505050506040513d6020811015610d7957600080fd5b8101908080519060200190929190505050610dfc576040517f08c379a000000000000000000000000000000000000000000000000000000000815260040180806020018281038252600f8152602001807f7472616e73666572206661696c6564000000000000000000000000000000000081525060200191505060405180910390fd5b82600360008473ffffffffffffffffffffffffffffffffffffffff1673ffffffffffffffffffffffffffffffffffffffff16815260200190815260200160002060008282540192505081905550505b5050565b610e57610fb1565b610ec9576040517f08c379a00000000000000000000000000000000000000000000000000000000081526004018080602001828103825260208152602001807f4f776e61626c653a2063616c6c6572206973206e6f7420746865206f776e657281525060200191505060405180910390fd5b600073ffffffffffffffffffffffffffffffffffffffff166000809054906101000a900473ffffffffffffffffffffffffffffffffffffffff1673ffffffffffffffffffffffffffffffffffffffff167f8be0079c531659141344cd1fd0a4f28419497f9722a3daafe3b4186f6b6457e060405160405180910390a360008060006101000a81548173ffffffffffffffffffffffffffffffffffffffff021916908373ffffffffffffffffffffffffffffffffffffffff160217905550565b60008060009054906101000a900473ffffffffffffffffffffffffffffffffffffffff16905090565b60008060009054906101000a900473ffffffffffffffffffffffffffffffffffffffff1673ffffffffffffffffffffffffffffffffffffffff16610ff3611095565b73ffffffffffffffffffffffffffffffffffffffff1614905090565b611017610fb1565b611089576040517f08c379a00000000000000000000000000000000000000000000000000000000081526004018080602001828103825260208152602001807f4f776e61626c653a2063616c6c6572206973206e6f7420746865206f776e657281525060200191505060405180910390fd5b6110928161109d565b50565b600033905090565b600073ffffffffffffffffffffffffffffffffffffffff168173ffffffffffffffffffffffffffffffffffffffff161415611123576040517f08c379a00000000000000000000000000000000000000000000000000000000081526004018080602001828103825260268152602001806111e26026913960400191505060405180910390fd5b8073ffffffffffffffffffffffffffffffffffffffff166000809054906101000a900473ffffffffffffffffffffffffffffffffffffffff1673ffffffffffffffffffffffffffffffffffffffff167f8be0079c531659141344cd1fd0a4f28419497f9722a3daafe3b4186f6b6457e060405160405180910390a3806000806101000a81548173ffffffffffffffffffffffffffffffffffffffff021916908373ffffffffffffffffffffffffffffffffffffffff1602179055505056fe4f776e61626c653a206e6577206f776e657220697320746865207a65726f20616464726573736f6e6c79207468652062656e65666963696172792063616e20706572666f726d20746869732066756e6374696f6ea265627a7a7231582033d3866aa85e6e2bacec6c69ecfe99f84784f7890e97e2cbf03a669f4edc3a2564736f6c634300051000324f776e61626c653a206e6577206f776e657220697320746865207a65726f2061646472657373",
  "source": "pragma solidity 0.5.16;\r\n\r\nimport \"@openzeppelin/contracts/token/ERC20/IERC20.sol\";\r\nimport \"@openzeppelin/contracts/math/SafeMath.sol\";\r\nimport \"@openzeppelin/contracts/ownership/Ownable.sol\";\r\n// import \"@openzeppelin/contracts/utils/Address.sol\";\r\n\r\ncontract TrustlessFund is Ownable {\r\n  using SafeMath for uint;\r\n\r\n  /*** STORAGE VARIABLES ***/\r\n\r\n  /**\r\n    * @notice Date time in seconds when timelock expires.\r\n  */\r\n  uint public expiration;\r\n\r\n  /**\r\n    * @notice Address permitted to withdraw funds after unlock.\r\n  */\r\n  address public beneficiary;\r\n\r\n  /**\r\n    * @notice Token balances.\r\n  */\r\n  mapping(address => uint) balances;\r\n\r\n  /*** EVENTS ***/\r\n\r\n\r\n\r\n  /*** MODIFIERS ***/\r\n\r\n  /**\r\n    * @dev Throws if the contract has not yet reached its expiration.\r\n  */\r\n  modifier isExpired() {\r\n    require(expiration < block.timestamp, 'contract is still locked');\r\n    _;\r\n  }\r\n\r\n  /**\r\n    * @dev Throws if msg.sender is not the beneficiary.\r\n  */\r\n  modifier onlyBeneficiary() {\r\n    require(msg.sender == beneficiary, 'only the beneficiary can perform this function');\r\n    _;\r\n  }\r\n\r\n  /**\r\n    * @param _expiration Date time in seconds when timelock expires.\r\n    * @param _beneficiary Address permitted to withdraw funds after unlock.\r\n    * @param _owner The contract owner.\r\n  */\r\n  constructor(uint _expiration, address _beneficiary, address _owner) public {\r\n    expiration = _expiration;\r\n    beneficiary = _beneficiary;\r\n    transferOwnership(_owner);\r\n  }\r\n\r\n  /*** VIEW/PURE FUNCTIONS ***/\r\n\r\n\r\n\r\n  /*** OTHER FUNCTIONS ***/\r\n\r\n  /**\r\n    * @dev Allows a user to deposit ETH or an ERC20 into the contract.\r\n           If _token is 0 address, deposit ETH.\r\n    * @param _amount The amount to deposit.\r\n    * @param _token The token to deposit.\r\n  */\r\n  function deposit(uint _amount, address _token) public payable {\r\n    if(_token == address(0)) {\r\n      require(msg.value == _amount, 'incorrect amount');\r\n      balances[_token] += _amount;\r\n    }\r\n    else {\r\n      IERC20 token = IERC20(_token);\r\n      require(token.transferFrom(msg.sender, address(this), _amount), 'transfer failed');\r\n      balances[_token] += _amount;\r\n    }\r\n  }\r\n\r\n  /**\r\n    * @dev Withdraw funds to msg.sender, but only if the timelock is expired\r\n           and msg.sender is the beneficiary.\r\n           If _token is 0 address, withdraw ETH.\r\n    * @param _amount The amount to withdraw.\r\n    * @param _token The token to withdraw.\r\n  */\r\n  function withdraw(uint _amount, address _token) public isExpired() onlyBeneficiary() {\r\n    if(_token == address(0)) {\r\n      require(address(this).balance >= _amount, 'not enough balance');\r\n      balances[_token] -= _amount;\r\n      (bool success, ) = msg.sender.call.value(_amount)(\"\");\r\n      require(success, \"Transfer failed.\");\r\n    } else {\r\n      IERC20 token = IERC20(_token);\r\n      require(token.balanceOf(address(this)) >= _amount, 'not enough balance');\r\n      balances[_token] -= _amount;\r\n      require(token.transfer(msg.sender, _amount), 'transfer failed');\r\n    }\r\n  }\r\n\r\n  /**\r\n    * @dev Increase the time until spender. Only the owner can perform this.\r\n    * @param _newExpiration New date time in seconds when timelock expires.\r\n  */\r\n  function increaseTime(uint _newExpiration) public onlyOwner() {\r\n    require(_newExpiration > expiration, 'can only increase expiration');\r\n    expiration = _newExpiration;\r\n  }\r\n\r\n  /**\r\n    * @dev Update the beneficiary address. Only the owner can perform this.\r\n    * @param _newBeneficiary New beneficiary address.\r\n  */\r\n  function updateBeneficiary(address _newBeneficiary) public onlyOwner() {\r\n    require(_newBeneficiary != beneficiary, 'same beneficiary');\r\n    beneficiary = _newBeneficiary;\r\n  }\r\n}",
  "sourcePath": "C:\\Users\\kaden\\Documents\\code\\trustless-fund\\contracts\\TrustlessFund.sol",
  "compiler": {
    "name": "solc",
    "version": "0.5.16+commit.9c3226ce.Emscripten.clang"
  },
  "schemaVersion": "3.0.22",
  "updatedAt": "2020-03-23T22:50:53.432Z",
  "networkType": "ethereum",
  "devdoc": {
    "methods": {
      "constructor": {
        "params": {
          "_beneficiary": "Address permitted to withdraw funds after unlock.",
          "_expiration": "Date time in seconds when timelock expires.",
          "_owner": "The contract owner."
        }
      },
      "deposit(uint256,address)": {
        "details": "Allows a user to deposit ETH or an ERC20 into the contract. If _token is 0 address, deposit ETH.",
        "params": {
          "_amount": "The amount to deposit.",
          "_token": "The token to deposit."
        }
      },
      "increaseTime(uint256)": {
        "details": "Increase the time until spender. Only the owner can perform this.",
        "params": {
          "_newExpiration": "New date time in seconds when timelock expires."
        }
      },
      "isOwner()": {
        "details": "Returns true if the caller is the current owner."
      },
      "owner()": {
        "details": "Returns the address of the current owner."
      },
      "renounceOwnership()": {
        "details": "Leaves the contract without owner. It will not be possible to call `onlyOwner` functions anymore. Can only be called by the current owner.     * NOTE: Renouncing ownership will leave the contract without an owner, thereby removing any functionality that is only available to the owner."
      },
      "transferOwnership(address)": {
        "details": "Transfers ownership of the contract to a new account (`newOwner`). Can only be called by the current owner."
      },
      "updateBeneficiary(address)": {
        "details": "Update the beneficiary address. Only the owner can perform this.",
        "params": {
          "_newBeneficiary": "New beneficiary address."
        }
      },
      "withdraw(uint256,address)": {
        "details": "Withdraw funds to msg.sender, but only if the timelock is expired and msg.sender is the beneficiary. If _token is 0 address, withdraw ETH.",
        "params": {
          "_amount": "The amount to withdraw.",
          "_token": "The token to withdraw."
        }
      }
    }
  },
  "userdoc": {
    "methods": {}
  }
}