{
  "contractName": "TrustlessFund",
  "abi": [
    {
      "inputs": [
        {
          "internalType": "uint256",
          "name": "_expiration",
          "type": "uint256"
        },
        {
          "internalType": "address",
          "name": "_beneficiary",
          "type": "address"
        },
        {
          "internalType": "address",
          "name": "_owner",
          "type": "address"
        }
      ],
      "payable": false,
      "stateMutability": "nonpayable",
      "type": "constructor"
    },
    {
      "anonymous": false,
      "inputs": [
        {
          "indexed": true,
          "internalType": "address",
          "name": "_from",
          "type": "address"
        },
        {
          "indexed": false,
          "internalType": "uint256",
          "name": "_value",
          "type": "uint256"
        },
        {
          "indexed": true,
          "internalType": "address",
          "name": "_token",
          "type": "address"
        }
      ],
      "name": "Deposit",
      "type": "event"
    },
    {
      "anonymous": false,
      "inputs": [
        {
          "indexed": false,
          "internalType": "uint256",
          "name": "_newExpiration",
          "type": "uint256"
        }
      ],
      "name": "IncreaseTime",
      "type": "event"
    },
    {
      "anonymous": false,
      "inputs": [
        {
          "indexed": true,
          "internalType": "address",
          "name": "previousOwner",
          "type": "address"
        },
        {
          "indexed": true,
          "internalType": "address",
          "name": "newOwner",
          "type": "address"
        }
      ],
      "name": "OwnershipTransferred",
      "type": "event"
    },
    {
      "anonymous": false,
      "inputs": [
        {
          "indexed": true,
          "internalType": "address",
          "name": "_newBeneficiary",
          "type": "address"
        }
      ],
      "name": "UpdateBeneficiary",
      "type": "event"
    },
    {
      "anonymous": false,
      "inputs": [
        {
          "indexed": true,
          "internalType": "address",
          "name": "_to",
          "type": "address"
        },
        {
          "indexed": false,
          "internalType": "uint256",
          "name": "_value",
          "type": "uint256"
        },
        {
          "indexed": true,
          "internalType": "address",
          "name": "_token",
          "type": "address"
        }
      ],
      "name": "Withdraw",
      "type": "event"
    },
    {
      "constant": true,
      "inputs": [],
      "name": "beneficiary",
      "outputs": [
        {
          "internalType": "address",
          "name": "",
          "type": "address"
        }
      ],
      "payable": false,
      "stateMutability": "view",
      "type": "function"
    },
    {
      "constant": true,
      "inputs": [],
      "name": "expiration",
      "outputs": [
        {
          "internalType": "uint256",
          "name": "",
          "type": "uint256"
        }
      ],
      "payable": false,
      "stateMutability": "view",
      "type": "function"
    },
    {
      "constant": true,
      "inputs": [],
      "name": "isOwner",
      "outputs": [
        {
          "internalType": "bool",
          "name": "",
          "type": "bool"
        }
      ],
      "payable": false,
      "stateMutability": "view",
      "type": "function"
    },
    {
      "constant": true,
      "inputs": [],
      "name": "owner",
      "outputs": [
        {
          "internalType": "address",
          "name": "",
          "type": "address"
        }
      ],
      "payable": false,
      "stateMutability": "view",
      "type": "function"
    },
    {
      "constant": false,
      "inputs": [],
      "name": "renounceOwnership",
      "outputs": [],
      "payable": false,
      "stateMutability": "nonpayable",
      "type": "function"
    },
    {
      "constant": true,
      "inputs": [
        {
          "internalType": "uint256",
          "name": "",
          "type": "uint256"
        }
      ],
      "name": "tokenLUT",
      "outputs": [
        {
          "internalType": "address",
          "name": "",
          "type": "address"
        }
      ],
      "payable": false,
      "stateMutability": "view",
      "type": "function"
    },
    {
      "constant": true,
      "inputs": [
        {
          "internalType": "address",
          "name": "",
          "type": "address"
        }
      ],
      "name": "tokens",
      "outputs": [
        {
          "internalType": "uint256",
          "name": "balance",
          "type": "uint256"
        },
        {
          "internalType": "bool",
          "name": "exists",
          "type": "bool"
        }
      ],
      "payable": false,
      "stateMutability": "view",
      "type": "function"
    },
    {
      "constant": false,
      "inputs": [
        {
          "internalType": "address",
          "name": "newOwner",
          "type": "address"
        }
      ],
      "name": "transferOwnership",
      "outputs": [],
      "payable": false,
      "stateMutability": "nonpayable",
      "type": "function"
    },
    {
      "constant": true,
      "inputs": [],
      "name": "getTokenSize",
      "outputs": [
        {
          "internalType": "uint256",
          "name": "",
          "type": "uint256"
        }
      ],
      "payable": false,
      "stateMutability": "view",
      "type": "function"
    },
    {
      "constant": false,
      "inputs": [
        {
          "internalType": "uint256",
          "name": "_amount",
          "type": "uint256"
        },
        {
          "internalType": "address",
          "name": "_token",
          "type": "address"
        }
      ],
      "name": "deposit",
      "outputs": [],
      "payable": true,
      "stateMutability": "payable",
      "type": "function"
    },
    {
      "constant": false,
      "inputs": [
        {
          "internalType": "uint256",
          "name": "_amount",
          "type": "uint256"
        },
        {
          "internalType": "address",
          "name": "_token",
          "type": "address"
        }
      ],
      "name": "withdraw",
      "outputs": [],
      "payable": false,
      "stateMutability": "nonpayable",
      "type": "function"
    },
    {
      "constant": false,
      "inputs": [
        {
          "internalType": "uint256",
          "name": "_newExpiration",
          "type": "uint256"
        }
      ],
      "name": "increaseTime",
      "outputs": [],
      "payable": false,
      "stateMutability": "nonpayable",
      "type": "function"
    },
    {
      "constant": false,
      "inputs": [
        {
          "internalType": "address",
          "name": "_newBeneficiary",
          "type": "address"
        }
      ],
      "name": "updateBeneficiary",
      "outputs": [],
      "payable": false,
      "stateMutability": "nonpayable",
      "type": "function"
    }
  ],
  "bytecode": "0x60806040523480156200001157600080fd5b5060405162001ce038038062001ce0833981810160405260608110156200003757600080fd5b8101908080519060200190929190805190602001909291908051906020019092919050505060006200006e6200016e60201b60201c565b9050806000806101000a81548173ffffffffffffffffffffffffffffffffffffffff021916908373ffffffffffffffffffffffffffffffffffffffff1602179055508073ffffffffffffffffffffffffffffffffffffffff16600073ffffffffffffffffffffffffffffffffffffffff167f8be0079c531659141344cd1fd0a4f28419497f9722a3daafe3b4186f6b6457e060405160405180910390a3508260018190555081600260006101000a81548173ffffffffffffffffffffffffffffffffffffffff021916908373ffffffffffffffffffffffffffffffffffffffff16021790555062000165816200017660201b60201c565b505050620003b9565b600033905090565b620001866200020d60201b60201c565b620001f9576040517f08c379a00000000000000000000000000000000000000000000000000000000081526004018080602001828103825260208152602001807f4f776e61626c653a2063616c6c6572206973206e6f7420746865206f776e657281525060200191505060405180910390fd5b6200020a816200027360201b60201c565b50565b60008060009054906101000a900473ffffffffffffffffffffffffffffffffffffffff1673ffffffffffffffffffffffffffffffffffffffff16620002576200016e60201b60201c565b73ffffffffffffffffffffffffffffffffffffffff1614905090565b600073ffffffffffffffffffffffffffffffffffffffff168173ffffffffffffffffffffffffffffffffffffffff161415620002fb576040517f08c379a000000000000000000000000000000000000000000000000000000000815260040180806020018281038252602681526020018062001cba6026913960400191505060405180910390fd5b8073ffffffffffffffffffffffffffffffffffffffff166000809054906101000a900473ffffffffffffffffffffffffffffffffffffffff1673ffffffffffffffffffffffffffffffffffffffff167f8be0079c531659141344cd1fd0a4f28419497f9722a3daafe3b4186f6b6457e060405160405180910390a3806000806101000a81548173ffffffffffffffffffffffffffffffffffffffff021916908373ffffffffffffffffffffffffffffffffffffffff16021790555050565b6118f180620003c96000396000f3fe6080604052600436106100c15760003560e01c80636e553f651161007f5780638f32d59b116100595780638f32d59b14610316578063946a23fd14610345578063e4860339146103c0578063f2fde38b14610430576100c1565b80636e553f651461025a578063715018a6146102a85780638da5cb5b146102bf576100c1565b8062f714ce146100c65780630aaffd2a146101215780633642145a1461017257806338af3eed1461019d5780633c9a2a1a146101f45780634665096d1461022f575b600080fd5b3480156100d257600080fd5b5061011f600480360360408110156100e957600080fd5b8101908080359060200190929190803573ffffffffffffffffffffffffffffffffffffffff169060200190929190505050610481565b005b34801561012d57600080fd5b506101706004803603602081101561014457600080fd5b81019080803573ffffffffffffffffffffffffffffffffffffffff169060200190929190505050610ace565b005b34801561017e57600080fd5b50610187610d36565b6040518082815260200191505060405180910390f35b3480156101a957600080fd5b506101b2610d43565b604051808273ffffffffffffffffffffffffffffffffffffffff1673ffffffffffffffffffffffffffffffffffffffff16815260200191505060405180910390f35b34801561020057600080fd5b5061022d6004803603602081101561021757600080fd5b8101908080359060200190929190505050610d69565b005b34801561023b57600080fd5b50610244610e9b565b6040518082815260200191505060405180910390f35b6102a66004803603604081101561027057600080fd5b8101908080359060200190929190803573ffffffffffffffffffffffffffffffffffffffff169060200190929190505050610ea1565b005b3480156102b457600080fd5b506102bd611469565b005b3480156102cb57600080fd5b506102d46115a2565b604051808273ffffffffffffffffffffffffffffffffffffffff1673ffffffffffffffffffffffffffffffffffffffff16815260200191505060405180910390f35b34801561032257600080fd5b5061032b6115cb565b604051808215151515815260200191505060405180910390f35b34801561035157600080fd5b5061037e6004803603602081101561036857600080fd5b8101908080359060200190929190505050611629565b604051808273ffffffffffffffffffffffffffffffffffffffff1673ffffffffffffffffffffffffffffffffffffffff16815260200191505060405180910390f35b3480156103cc57600080fd5b5061040f600480360360208110156103e357600080fd5b81019080803573ffffffffffffffffffffffffffffffffffffffff169060200190929190505050611665565b60405180838152602001821515151581526020019250505060405180910390f35b34801561043c57600080fd5b5061047f6004803603602081101561045357600080fd5b81019080803573ffffffffffffffffffffffffffffffffffffffff169060200190929190505050611696565b005b42600154106104f8576040517f08c379a00000000000000000000000000000000000000000000000000000000081526004018080602001828103825260188152602001807f636f6e7472616374206973207374696c6c206c6f636b6564000000000000000081525060200191505060405180910390fd5b600260009054906101000a900473ffffffffffffffffffffffffffffffffffffffff1673ffffffffffffffffffffffffffffffffffffffff163373ffffffffffffffffffffffffffffffffffffffff161461059e576040517f08c379a000000000000000000000000000000000000000000000000000000000815260040180806020018281038252602e81526020018061188f602e913960400191505060405180910390fd5b600073ffffffffffffffffffffffffffffffffffffffff168173ffffffffffffffffffffffffffffffffffffffff1614156108225781600460008373ffffffffffffffffffffffffffffffffffffffff1673ffffffffffffffffffffffffffffffffffffffff16815260200190815260200160002060000154101561068b576040517f08c379a00000000000000000000000000000000000000000000000000000000081526004018080602001828103825260128152602001807f6e6f7420656e6f7567682062616c616e6365000000000000000000000000000081525060200191505060405180910390fd5b81600460008373ffffffffffffffffffffffffffffffffffffffff1673ffffffffffffffffffffffffffffffffffffffff1681526020019081526020016000206000016000828254039250508190555060003373ffffffffffffffffffffffffffffffffffffffff168360405180600001905060006040518083038185875af1925050503d806000811461073b576040519150601f19603f3d011682016040523d82523d6000602084013e610740565b606091505b50509050806107b7576040517f08c379a00000000000000000000000000000000000000000000000000000000081526004018080602001828103825260108152602001807f5472616e73666572206661696c65642e0000000000000000000000000000000081525060200191505060405180910390fd5b8173ffffffffffffffffffffffffffffffffffffffff163373ffffffffffffffffffffffffffffffffffffffff167f56c54ba9bd38d8fd62012e42c7ee564519b09763c426d331b3661b537ead19b2856040518082815260200191505060405180910390a350610aca565b600081905082600460008473ffffffffffffffffffffffffffffffffffffffff1673ffffffffffffffffffffffffffffffffffffffff1681526020019081526020016000206000015410156108df576040517f08c379a00000000000000000000000000000000000000000000000000000000081526004018080602001828103825260128152602001807f6e6f7420656e6f7567682062616c616e6365000000000000000000000000000081525060200191505060405180910390fd5b82600460008473ffffffffffffffffffffffffffffffffffffffff1673ffffffffffffffffffffffffffffffffffffffff168152602001908152602001600020600001600082825403925050819055508073ffffffffffffffffffffffffffffffffffffffff1663a9059cbb33856040518363ffffffff1660e01b8152600401808373ffffffffffffffffffffffffffffffffffffffff1673ffffffffffffffffffffffffffffffffffffffff16815260200182815260200192505050602060405180830381600087803b1580156109b657600080fd5b505af11580156109ca573d6000803e3d6000fd5b505050506040513d60208110156109e057600080fd5b8101908080519060200190929190505050610a63576040517f08c379a000000000000000000000000000000000000000000000000000000000815260040180806020018281038252600f8152602001807f7472616e73666572206661696c6564000000000000000000000000000000000081525060200191505060405180910390fd5b8173ffffffffffffffffffffffffffffffffffffffff163373ffffffffffffffffffffffffffffffffffffffff167f56c54ba9bd38d8fd62012e42c7ee564519b09763c426d331b3661b537ead19b2856040518082815260200191505060405180910390a3505b5050565b610ad66115cb565b610b48576040517f08c379a00000000000000000000000000000000000000000000000000000000081526004018080602001828103825260208152602001807f4f776e61626c653a2063616c6c6572206973206e6f7420746865206f776e657281525060200191505060405180910390fd5b600260009054906101000a900473ffffffffffffffffffffffffffffffffffffffff1673ffffffffffffffffffffffffffffffffffffffff168173ffffffffffffffffffffffffffffffffffffffff161415610c0c576040517f08c379a00000000000000000000000000000000000000000000000000000000081526004018080602001828103825260108152602001807f73616d652062656e65666963696172790000000000000000000000000000000081525060200191505060405180910390fd5b600073ffffffffffffffffffffffffffffffffffffffff168173ffffffffffffffffffffffffffffffffffffffff161415610caf576040517f08c379a000000000000000000000000000000000000000000000000000000000815260040180806020018281038252601a8152602001807f63616e6e6f7420736574206173206275726e206164647265737300000000000081525060200191505060405180910390fd5b80600260006101000a81548173ffffffffffffffffffffffffffffffffffffffff021916908373ffffffffffffffffffffffffffffffffffffffff1602179055508073ffffffffffffffffffffffffffffffffffffffff167fe6131a64e93e9aa4ff38892c34d563c06dcc1e03b3d6897cc65f0903e2ad684860405160405180910390a250565b6000600380549050905090565b600260009054906101000a900473ffffffffffffffffffffffffffffffffffffffff1681565b610d716115cb565b610de3576040517f08c379a00000000000000000000000000000000000000000000000000000000081526004018080602001828103825260208152602001807f4f776e61626c653a2063616c6c6572206973206e6f7420746865206f776e657281525060200191505060405180910390fd5b6001548111610e5a576040517f08c379a000000000000000000000000000000000000000000000000000000000815260040180806020018281038252601c8152602001807f63616e206f6e6c7920696e6372656173652065787069726174696f6e0000000081525060200191505060405180910390fd5b806001819055507f58ae8539310b13b3c818e29f630eec0786d040ebcdddb7ed8566ba460a463d1e816040518082815260200191505060405180910390a150565b60015481565b600073ffffffffffffffffffffffffffffffffffffffff168173ffffffffffffffffffffffffffffffffffffffff16141561112357813414610f4b576040517f08c379a00000000000000000000000000000000000000000000000000000000081526004018080602001828103825260108152602001807f696e636f727265637420616d6f756e740000000000000000000000000000000081525060200191505060405180910390fd5b81600460008373ffffffffffffffffffffffffffffffffffffffff1673ffffffffffffffffffffffffffffffffffffffff1681526020019081526020016000206000016000828254019250508190555060001515600460008373ffffffffffffffffffffffffffffffffffffffff1673ffffffffffffffffffffffffffffffffffffffff16815260200190815260200160002060010160009054906101000a900460ff16151514156110b9576001600460008373ffffffffffffffffffffffffffffffffffffffff1673ffffffffffffffffffffffffffffffffffffffff16815260200190815260200160002060010160006101000a81548160ff02191690831515021790555060038190806001815401808255809150509060018203906000526020600020016000909192909190916101000a81548173ffffffffffffffffffffffffffffffffffffffff021916908373ffffffffffffffffffffffffffffffffffffffff160217905550505b8073ffffffffffffffffffffffffffffffffffffffff163373ffffffffffffffffffffffffffffffffffffffff167fe31c7b8d08ee7db0afa68782e1028ef92305caeea8626633ad44d413e30f6b2f846040518082815260200191505060405180910390a3611465565b60008190508073ffffffffffffffffffffffffffffffffffffffff166323b872dd3330866040518463ffffffff1660e01b8152600401808473ffffffffffffffffffffffffffffffffffffffff1673ffffffffffffffffffffffffffffffffffffffff1681526020018373ffffffffffffffffffffffffffffffffffffffff1673ffffffffffffffffffffffffffffffffffffffff1681526020018281526020019350505050602060405180830381600087803b1580156111e357600080fd5b505af11580156111f7573d6000803e3d6000fd5b505050506040513d602081101561120d57600080fd5b8101908080519060200190929190505050611290576040517f08c379a000000000000000000000000000000000000000000000000000000000815260040180806020018281038252600f8152602001807f7472616e73666572206661696c6564000000000000000000000000000000000081525060200191505060405180910390fd5b82600460008473ffffffffffffffffffffffffffffffffffffffff1673ffffffffffffffffffffffffffffffffffffffff1681526020019081526020016000206000016000828254019250508190555060001515600460008473ffffffffffffffffffffffffffffffffffffffff1673ffffffffffffffffffffffffffffffffffffffff16815260200190815260200160002060010160009054906101000a900460ff16151514156113fe576001600460008473ffffffffffffffffffffffffffffffffffffffff1673ffffffffffffffffffffffffffffffffffffffff16815260200190815260200160002060010160006101000a81548160ff02191690831515021790555060038290806001815401808255809150509060018203906000526020600020016000909192909190916101000a81548173ffffffffffffffffffffffffffffffffffffffff021916908373ffffffffffffffffffffffffffffffffffffffff160217905550505b8173ffffffffffffffffffffffffffffffffffffffff163373ffffffffffffffffffffffffffffffffffffffff167fe31c7b8d08ee7db0afa68782e1028ef92305caeea8626633ad44d413e30f6b2f856040518082815260200191505060405180910390a3505b5050565b6114716115cb565b6114e3576040517f08c379a00000000000000000000000000000000000000000000000000000000081526004018080602001828103825260208152602001807f4f776e61626c653a2063616c6c6572206973206e6f7420746865206f776e657281525060200191505060405180910390fd5b600073ffffffffffffffffffffffffffffffffffffffff166000809054906101000a900473ffffffffffffffffffffffffffffffffffffffff1673ffffffffffffffffffffffffffffffffffffffff167f8be0079c531659141344cd1fd0a4f28419497f9722a3daafe3b4186f6b6457e060405160405180910390a360008060006101000a81548173ffffffffffffffffffffffffffffffffffffffff021916908373ffffffffffffffffffffffffffffffffffffffff160217905550565b60008060009054906101000a900473ffffffffffffffffffffffffffffffffffffffff16905090565b60008060009054906101000a900473ffffffffffffffffffffffffffffffffffffffff1673ffffffffffffffffffffffffffffffffffffffff1661160d61171c565b73ffffffffffffffffffffffffffffffffffffffff1614905090565b6003818154811061163657fe5b906000526020600020016000915054906101000a900473ffffffffffffffffffffffffffffffffffffffff1681565b60046020528060005260406000206000915090508060000154908060010160009054906101000a900460ff16905082565b61169e6115cb565b611710576040517f08c379a00000000000000000000000000000000000000000000000000000000081526004018080602001828103825260208152602001807f4f776e61626c653a2063616c6c6572206973206e6f7420746865206f776e657281525060200191505060405180910390fd5b61171981611724565b50565b600033905090565b600073ffffffffffffffffffffffffffffffffffffffff168173ffffffffffffffffffffffffffffffffffffffff1614156117aa576040517f08c379a00000000000000000000000000000000000000000000000000000000081526004018080602001828103825260268152602001806118696026913960400191505060405180910390fd5b8073ffffffffffffffffffffffffffffffffffffffff166000809054906101000a900473ffffffffffffffffffffffffffffffffffffffff1673ffffffffffffffffffffffffffffffffffffffff167f8be0079c531659141344cd1fd0a4f28419497f9722a3daafe3b4186f6b6457e060405160405180910390a3806000806101000a81548173ffffffffffffffffffffffffffffffffffffffff021916908373ffffffffffffffffffffffffffffffffffffffff1602179055505056fe4f776e61626c653a206e6577206f776e657220697320746865207a65726f20616464726573736f6e6c79207468652062656e65666963696172792063616e20706572666f726d20746869732066756e6374696f6ea265627a7a72315820fed2d0296994be745fbf8ee4ed20dd991b021940ef23f3c0bb18c492226b3a5964736f6c634300051000324f776e61626c653a206e6577206f776e657220697320746865207a65726f2061646472657373",
  "source": "pragma solidity 0.5.16;\r\n\r\nimport \"@openzeppelin/contracts/token/ERC20/IERC20.sol\";\r\nimport \"@openzeppelin/contracts/math/SafeMath.sol\";\r\nimport \"@openzeppelin/contracts/ownership/Ownable.sol\";\r\n\r\ncontract TrustlessFund is Ownable {\r\n  using SafeMath for uint;\r\n\r\n  /*** STORAGE VARIABLES ***/\r\n\r\n  /**\r\n    * @notice Date time in seconds when timelock expires.\r\n  */\r\n  uint public expiration;\r\n\r\n  /**\r\n    * @notice Address permitted to withdraw funds after unlock.\r\n  */\r\n  address public beneficiary;\r\n\r\n  /**\r\n    * @notice Tracks token balance and whether it exists in\r\n              the lookup table.\r\n  */\r\n  struct Token {\r\n    uint balance;\r\n    bool exists;\r\n  }\r\n\r\n  /**\r\n    * @notice Token look up table for front-end access.\r\n  */\r\n  address[] public tokenLUT;\r\n\r\n  /**\r\n    * @notice Maps token address to token struct.\r\n  */\r\n  mapping(address => Token) public tokens;\r\n\r\n  /*** EVENTS ***/\r\n\r\n  /**\r\n    * @notice Emits when a deposit is made.\r\n  */\r\n  event Deposit(address indexed _from, uint _value, address indexed _token);\r\n\r\n  /**\r\n    * @notice Emits when a withdrawal is made.\r\n  */\r\n  event Withdraw(address indexed _to, uint _value, address indexed _token);\r\n\r\n  /**\r\n    * @notice Emits when the expiration is increased.\r\n  */\r\n  event IncreaseTime(uint _newExpiration);\r\n\r\n  /**\r\n    * @notice Emits when the beneficiary is updated.\r\n  */\r\n  event UpdateBeneficiary(address indexed _newBeneficiary);\r\n\r\n  /*** MODIFIERS ***/\r\n\r\n  /**\r\n    * @dev Throws if the contract has not yet reached its expiration.\r\n  */\r\n  modifier isExpired() {\r\n    require(expiration < block.timestamp, 'contract is still locked');\r\n    _;\r\n  }\r\n\r\n  /**\r\n    * @dev Throws if msg.sender is not the beneficiary.\r\n  */\r\n  modifier onlyBeneficiary() {\r\n    require(msg.sender == beneficiary, 'only the beneficiary can perform this function');\r\n    _;\r\n  }\r\n\r\n  /**\r\n    * @param _expiration Date time in seconds when timelock expires.\r\n    * @param _beneficiary Address permitted to withdraw funds after unlock.\r\n    * @param _owner The contract owner.\r\n  */\r\n  constructor(uint _expiration, address _beneficiary, address _owner) public {\r\n    expiration = _expiration;\r\n    beneficiary = _beneficiary;\r\n    transferOwnership(_owner);\r\n  }\r\n\r\n  /*** VIEW/PURE FUNCTIONS ***/\r\n\r\n  /**\r\n    * @dev Returns the length of the tokenLUT array.\r\n  */\r\n  function getTokenSize() public view returns(uint) {\r\n    return tokenLUT.length;\r\n  }\r\n\r\n  /*** OTHER FUNCTIONS ***/\r\n\r\n  /**\r\n    * @dev Allows a user to deposit ETH or an ERC20 into the contract.\r\n           If _token is 0 address, deposit ETH.\r\n    * @param _amount The amount to deposit.\r\n    * @param _token The token to deposit.\r\n  */\r\n  function deposit(uint _amount, address _token) public payable {\r\n    if(_token == address(0)) {\r\n      require(msg.value == _amount, 'incorrect amount');\r\n      tokens[_token].balance += _amount;\r\n      if(tokens[_token].exists == false) {\r\n        tokens[_token].exists = true;\r\n        tokenLUT.push(_token);\r\n      }\r\n      emit Deposit(msg.sender, _amount, _token);\r\n    }\r\n    else {\r\n      IERC20 token = IERC20(_token);\r\n      require(token.transferFrom(msg.sender, address(this), _amount), 'transfer failed');\r\n      tokens[_token].balance += _amount;\r\n      if(tokens[_token].exists == false) {\r\n        tokens[_token].exists = true;\r\n        tokenLUT.push(_token);\r\n      }\r\n      emit Deposit(msg.sender, _amount, _token);\r\n    }\r\n  }\r\n\r\n  /**\r\n    * @dev Withdraw funds to msg.sender, but only if the timelock is expired\r\n           and msg.sender is the beneficiary.\r\n           If _token is 0 address, withdraw ETH.\r\n    * @param _amount The amount to withdraw.\r\n    * @param _token The token to withdraw.\r\n  */\r\n  function withdraw(uint _amount, address _token) public isExpired() onlyBeneficiary() {\r\n    if(_token == address(0)) {\r\n      require(tokens[_token].balance >= _amount, 'not enough balance');\r\n      tokens[_token].balance -= _amount;\r\n      (bool success, ) = msg.sender.call.value(_amount)(\"\");\r\n      require(success, \"Transfer failed.\");\r\n      emit Withdraw(msg.sender, _amount, _token);\r\n    } else {\r\n      IERC20 token = IERC20(_token);\r\n      require(tokens[_token].balance >= _amount, 'not enough balance');\r\n      tokens[_token].balance -= _amount;\r\n      require(token.transfer(msg.sender, _amount), 'transfer failed');\r\n      emit Withdraw(msg.sender, _amount, _token);\r\n    }\r\n  }\r\n\r\n  /**\r\n    * @dev Increase the time until expiration. Only the owner can perform this.\r\n    * @param _newExpiration New date time in seconds when timelock expires.\r\n  */\r\n  function increaseTime(uint _newExpiration) public onlyOwner() {\r\n    require(_newExpiration > expiration, 'can only increase expiration');\r\n    expiration = _newExpiration;\r\n    emit IncreaseTime(_newExpiration);\r\n  }\r\n\r\n  /**\r\n    * @dev Update the beneficiary address. Only the owner can perform this.\r\n    * @param _newBeneficiary New beneficiary address.\r\n  */\r\n  function updateBeneficiary(address _newBeneficiary) public onlyOwner() {\r\n    require(_newBeneficiary != beneficiary, 'same beneficiary');\r\n    require(_newBeneficiary != address(0), 'cannot set as burn address');\r\n    beneficiary = _newBeneficiary;\r\n    emit UpdateBeneficiary(_newBeneficiary);\r\n  }\r\n}",
  "sourcePath": "C:\\Users\\kaden\\Documents\\code\\trustless-fund\\contracts\\TrustlessFund.sol",
  "compiler": {
    "name": "solc",
    "version": "0.5.16+commit.9c3226ce.Emscripten.clang"
  },
  "schemaVersion": "3.0.22",
  "updatedAt": "2020-04-03T22:38:40.178Z",
  "devdoc": {
    "methods": {
      "constructor": {
        "params": {
          "_beneficiary": "Address permitted to withdraw funds after unlock.",
          "_expiration": "Date time in seconds when timelock expires.",
          "_owner": "The contract owner."
        }
      },
      "deposit(uint256,address)": {
        "details": "Allows a user to deposit ETH or an ERC20 into the contract. If _token is 0 address, deposit ETH.",
        "params": {
          "_amount": "The amount to deposit.",
          "_token": "The token to deposit."
        }
      },
      "getTokenSize()": {
        "details": "Returns the length of the tokenLUT array."
      },
      "increaseTime(uint256)": {
        "details": "Increase the time until expiration. Only the owner can perform this.",
        "params": {
          "_newExpiration": "New date time in seconds when timelock expires."
        }
      },
      "isOwner()": {
        "details": "Returns true if the caller is the current owner."
      },
      "owner()": {
        "details": "Returns the address of the current owner."
      },
      "renounceOwnership()": {
        "details": "Leaves the contract without owner. It will not be possible to call `onlyOwner` functions anymore. Can only be called by the current owner.     * NOTE: Renouncing ownership will leave the contract without an owner, thereby removing any functionality that is only available to the owner."
      },
      "transferOwnership(address)": {
        "details": "Transfers ownership of the contract to a new account (`newOwner`). Can only be called by the current owner."
      },
      "updateBeneficiary(address)": {
        "details": "Update the beneficiary address. Only the owner can perform this.",
        "params": {
          "_newBeneficiary": "New beneficiary address."
        }
      },
      "withdraw(uint256,address)": {
        "details": "Withdraw funds to msg.sender, but only if the timelock is expired and msg.sender is the beneficiary. If _token is 0 address, withdraw ETH.",
        "params": {
          "_amount": "The amount to withdraw.",
          "_token": "The token to withdraw."
        }
      }
    }
  },
  "userdoc": {
    "methods": {}
  }
}