{
  "contractName": "TrustlessFundFactory",
  "abi": [
    {
      "constant": true,
      "inputs": [],
      "name": "nextId",
      "outputs": [
        {
          "name": "",
          "type": "uint256"
        }
      ],
      "payable": false,
      "stateMutability": "view",
      "type": "function"
    },
    {
      "constant": false,
      "inputs": [
        {
          "name": "expiration",
          "type": "uint256"
        }
      ],
      "name": "createFund",
      "outputs": [],
      "payable": false,
      "stateMutability": "nonpayable",
      "type": "function"
    },
    {
      "constant": false,
      "inputs": [
        {
          "name": "id",
          "type": "uint256"
        }
      ],
      "name": "getFund",
      "outputs": [
        {
          "name": "",
          "type": "address"
        }
      ],
      "payable": false,
      "stateMutability": "nonpayable",
      "type": "function"
    }
  ],
  "bytecode": "0x608060405234801561001057600080fd5b50610379806100206000396000f3fe608060405234801561001057600080fd5b50600436106100415760003560e01c806342fa07131461004657806352c8df641461007457806361b8ce8c146100e2575b600080fd5b6100726004803603602081101561005c57600080fd5b8101908080359060200190929190505050610100565b005b6100a06004803603602081101561008a57600080fd5b8101908080359060200190929190505050610277565b604051808273ffffffffffffffffffffffffffffffffffffffff1673ffffffffffffffffffffffffffffffffffffffff16815260200191505060405180910390f35b6100ea6102b3565b6040518082815260200191505060405180910390f35b600073ffffffffffffffffffffffffffffffffffffffff16600080600154815260200190815260200160002060009054906101000a900473ffffffffffffffffffffffffffffffffffffffff1673ffffffffffffffffffffffffffffffffffffffff16146101d6576040517f08c379a00000000000000000000000000000000000000000000000000000000081526004018080602001828103825260118152602001807f696420616c726561647920696e2075736500000000000000000000000000000081525060200191505060405180910390fd5b6000816040516101e5906102b9565b80828152602001915050604051809103906000f08015801561020b573d6000803e3d6000fd5b50905080600080600154815260200190815260200160002060006101000a81548173ffffffffffffffffffffffffffffffffffffffff021916908373ffffffffffffffffffffffffffffffffffffffff1602179055506001600081548092919060010191905055505050565b600080600083815260200190815260200160002060009054906101000a900473ffffffffffffffffffffffffffffffffffffffff169050919050565b60015481565b6088806102c68339019056fe6080604052348015600f57600080fd5b50604051602080608883398101806040526020811015602d57600080fd5b8101908080519060200190929190505050806000819055505060358060536000396000f3fe6080604052600080fdfea165627a7a72305820df21949431ad8508aa9b0e489c902882a98a3130dc3f11061cce8e55683827300029a165627a7a723058206e2bb5f2946a35b9bcfbce3ee2e6036f5e2272792687c3b8a4c779d937f55ad80029",
  "source": "pragma solidity 0.5.8;\r\n\r\nimport './TrustlessFund.sol';\r\n\r\ncontract TrustlessFundFactory {\r\n  mapping(uint => address) funds;\r\n  uint public nextId;\r\n\r\n  // Create TrustlessFund\r\n  // TODO: Allow an array of addresses for multisig emergency exit\r\n  function createFund(uint expiration) public {\r\n    require(funds[nextId] == address(0), 'id already in use');\r\n    TrustlessFund fund = new TrustlessFund(expiration);\r\n    funds[nextId] = address(fund);\r\n    nextId++;\r\n  }\r\n\r\n  // TODO: Get funds owned by an address\r\n\r\n  // Get a fund by id\r\n  function getFund(uint id) public returns(address) {\r\n    return funds[id];\r\n  }\r\n}",
  "sourcePath": "C:/Users/kaden/Documents/code/trustless-fund/contracts/TrustlessFundFactory.sol",
  "compiler": {
    "name": "solc",
    "version": "0.5.8+commit.23d335f2.Emscripten.clang"
  },
  "schemaVersion": "3.0.17",
  "updatedAt": "2020-03-18T16:57:26.909Z",
  "networkType": "ethereum",
  "devdoc": {
    "methods": {}
  },
  "userdoc": {
    "methods": {}
  }
}