{
  "contractName": "TrustlessFund",
  "abi": [
    {
      "inputs": [
        {
          "internalType": "uint256",
          "name": "_expiration",
          "type": "uint256"
        },
        {
          "internalType": "address",
          "name": "_beneficiary",
          "type": "address"
        },
        {
          "internalType": "address",
          "name": "_owner",
          "type": "address"
        }
      ],
      "payable": false,
      "stateMutability": "nonpayable",
      "type": "constructor"
    },
    {
      "constant": true,
      "inputs": [],
      "name": "getOwner",
      "outputs": [
        {
          "internalType": "address",
          "name": "",
          "type": "address"
        }
      ],
      "payable": false,
      "stateMutability": "view",
      "type": "function"
    },
    {
      "constant": false,
      "inputs": [
        {
          "internalType": "uint256",
          "name": "_amount",
          "type": "uint256"
        },
        {
          "internalType": "address",
          "name": "_token",
          "type": "address"
        }
      ],
      "name": "deposit",
      "outputs": [],
      "payable": true,
      "stateMutability": "payable",
      "type": "function"
    },
    {
      "constant": false,
      "inputs": [
        {
          "internalType": "uint256",
          "name": "_amount",
          "type": "uint256"
        },
        {
          "internalType": "address",
          "name": "_token",
          "type": "address"
        }
      ],
      "name": "withdraw",
      "outputs": [],
      "payable": false,
      "stateMutability": "nonpayable",
      "type": "function"
    }
  ],
  "bytecode": "0x608060405234801561001057600080fd5b50604051610d4f380380610d4f8339818101604052606081101561003357600080fd5b810190808051906020019092919080519060200190929190805190602001909291905050508260008190555081600160006101000a81548173ffffffffffffffffffffffffffffffffffffffff021916908373ffffffffffffffffffffffffffffffffffffffff16021790555080600260006101000a81548173ffffffffffffffffffffffffffffffffffffffff021916908373ffffffffffffffffffffffffffffffffffffffff160217905550505050610c5c806100f36000396000f3fe6080604052600436106100335760003560e01c8062f714ce146100385780636e553f6514610093578063893d20e8146100e1575b600080fd5b34801561004457600080fd5b506100916004803603604081101561005b57600080fd5b8101908080359060200190929190803573ffffffffffffffffffffffffffffffffffffffff169060200190929190505050610138565b005b6100df600480360360408110156100a957600080fd5b8101908080359060200190929190803573ffffffffffffffffffffffffffffffffffffffff169060200190929190505050610727565b005b3480156100ed57600080fd5b506100f66109e3565b604051808273ffffffffffffffffffffffffffffffffffffffff1673ffffffffffffffffffffffffffffffffffffffff16815260200191505060405180910390f35b42600054106101af576040517f08c379a00000000000000000000000000000000000000000000000000000000081526004018080602001828103825260188152602001807f636f6e7472616374206973207374696c6c206c6f636b6564000000000000000081525060200191505060405180910390fd5b600160009054906101000a900473ffffffffffffffffffffffffffffffffffffffff1673ffffffffffffffffffffffffffffffffffffffff163373ffffffffffffffffffffffffffffffffffffffff1614610255576040517f08c379a000000000000000000000000000000000000000000000000000000000815260040180806020018281038252602e815260200180610bfa602e913960400191505060405180910390fd5b6102946040518060400160405280600c81526020017f6d73672e73656e6465723a20000000000000000000000000000000000000000081525033610a0d565b600073ffffffffffffffffffffffffffffffffffffffff168173ffffffffffffffffffffffffffffffffffffffff16141561046e578147101561033f576040517f08c379a00000000000000000000000000000000000000000000000000000000081526004018080602001828103825260128152602001807f6e6f7420656e6f7567682062616c616e6365000000000000000000000000000081525060200191505060405180910390fd5b81600360008373ffffffffffffffffffffffffffffffffffffffff1673ffffffffffffffffffffffffffffffffffffffff1681526020019081526020016000206000828254039250508190555060003373ffffffffffffffffffffffffffffffffffffffff168360405180600001905060006040518083038185875af1925050503d80600081146103ec576040519150601f19603f3d011682016040523d82523d6000602084013e6103f1565b606091505b5050905080610468576040517f08c379a00000000000000000000000000000000000000000000000000000000081526004018080602001828103825260108152602001807f5472616e73666572206661696c65642e0000000000000000000000000000000081525060200191505060405180910390fd5b50610723565b6000819050828173ffffffffffffffffffffffffffffffffffffffff166370a08231306040518263ffffffff1660e01b8152600401808273ffffffffffffffffffffffffffffffffffffffff1673ffffffffffffffffffffffffffffffffffffffff16815260200191505060206040518083038186803b1580156104f157600080fd5b505afa158015610505573d6000803e3d6000fd5b505050506040513d602081101561051b57600080fd5b810190808051906020019092919050505010156105a0576040517f08c379a00000000000000000000000000000000000000000000000000000000081526004018080602001828103825260128152602001807f6e6f7420656e6f7567682062616c616e6365000000000000000000000000000081525060200191505060405180910390fd5b82600360008473ffffffffffffffffffffffffffffffffffffffff1673ffffffffffffffffffffffffffffffffffffffff168152602001908152602001600020600082825403925050819055508073ffffffffffffffffffffffffffffffffffffffff1663a9059cbb33856040518363ffffffff1660e01b8152600401808373ffffffffffffffffffffffffffffffffffffffff1673ffffffffffffffffffffffffffffffffffffffff16815260200182815260200192505050602060405180830381600087803b15801561067457600080fd5b505af1158015610688573d6000803e3d6000fd5b505050506040513d602081101561069e57600080fd5b8101908080519060200190929190505050610721576040517f08c379a000000000000000000000000000000000000000000000000000000000815260040180806020018281038252600f8152602001807f7472616e73666572206661696c6564000000000000000000000000000000000081525060200191505060405180910390fd5b505b5050565b600073ffffffffffffffffffffffffffffffffffffffff168173ffffffffffffffffffffffffffffffffffffffff161415610823578134146107d1576040517f08c379a00000000000000000000000000000000000000000000000000000000081526004018080602001828103825260108152602001807f696e636f727265637420616d6f756e740000000000000000000000000000000081525060200191505060405180910390fd5b81600360008373ffffffffffffffffffffffffffffffffffffffff1673ffffffffffffffffffffffffffffffffffffffff168152602001908152602001600020600082825401925050819055506109df565b60008190508073ffffffffffffffffffffffffffffffffffffffff166323b872dd3330866040518463ffffffff1660e01b8152600401808473ffffffffffffffffffffffffffffffffffffffff1673ffffffffffffffffffffffffffffffffffffffff1681526020018373ffffffffffffffffffffffffffffffffffffffff1673ffffffffffffffffffffffffffffffffffffffff1681526020018281526020019350505050602060405180830381600087803b1580156108e357600080fd5b505af11580156108f7573d6000803e3d6000fd5b505050506040513d602081101561090d57600080fd5b8101908080519060200190929190505050610990576040517f08c379a000000000000000000000000000000000000000000000000000000000815260040180806020018281038252600f8152602001807f7472616e73666572206661696c6564000000000000000000000000000000000081525060200191505060405180910390fd5b82600360008473ffffffffffffffffffffffffffffffffffffffff1673ffffffffffffffffffffffffffffffffffffffff16815260200190815260200160002060008282540192505081905550505b5050565b6000600260009054906101000a900473ffffffffffffffffffffffffffffffffffffffff16905090565b60006a636f6e736f6c652e6c6f6773ffffffffffffffffffffffffffffffffffffffff16838360405160240180806020018373ffffffffffffffffffffffffffffffffffffffff1673ffffffffffffffffffffffffffffffffffffffff168152602001828103825284818151815260200191508051906020019080838360005b83811015610aa8578082015181840152602081019050610a8d565b50505050905090810190601f168015610ad55780820380516001836020036101000a031916815260200191505b5093505050506040516020818303038152906040527f319af333000000000000000000000000000000000000000000000000000000007bffffffffffffffffffffffffffffffffffffffffffffffffffffffff19166020820180517bffffffffffffffffffffffffffffffffffffffffffffffffffffffff83818316178352505050506040518082805190602001908083835b60208310610b8b5780518252602082019150602081019050602083039250610b68565b6001836020036101000a038019825116818451168082178552505050505050905001915050600060405180830381855afa9150503d8060008114610beb576040519150601f19603f3d011682016040523d82523d6000602084013e610bf0565b606091505b5050905050505056fe6f6e6c79207468652062656e65666963696172792063616e20706572666f726d20746869732066756e6374696f6ea265627a7a723158209d8b8fdf257a5a408619b91d88e910e2d9a46bd900c709f87c530dbb977d42c564736f6c63430005100032",
  "source": "pragma solidity 0.5.16;\r\n\r\nimport \"@nomiclabs/buidler/console.sol\";\r\nimport \"@openzeppelin/contracts/token/ERC20/IERC20.sol\";\r\nimport \"@openzeppelin/contracts/math/SafeMath.sol\";\r\n\r\ncontract TrustlessFund {\r\n  using SafeMath for uint;\r\n\r\n  /*** STORAGE VARIABLES ***/\r\n\r\n  /**\r\n    * @notice Date time in seconds when timelock expires.\r\n  */\r\n  uint expiration;\r\n\r\n  /**\r\n    * @notice Address permitted to withdraw funds after unlock.\r\n  */\r\n  address beneficiary;\r\n\r\n  /**\r\n    * @notice The contract owner.\r\n  */\r\n  address owner;\r\n\r\n  mapping(address => uint) balances;\r\n\r\n  /*** EVENTS ***/\r\n\r\n\r\n\r\n  /*** MODIFIERS ***/\r\n\r\n  /**\r\n    * @dev Throws if called by any account other than the owner.\r\n  */\r\n  modifier onlyOwner() {\r\n    require(owner == msg.sender, \"Ownable: caller is not the owner\");\r\n    _;\r\n  }\r\n\r\n  /**\r\n    * @dev Throws if the contract has not yet reached its expiration.\r\n  */\r\n  modifier isExpired() {\r\n    require(expiration < block.timestamp, 'contract is still locked');\r\n    _;\r\n  }\r\n\r\n  /**\r\n    * @dev Throws if msg.sender is not the beneficiary.\r\n  */\r\n  modifier onlyBeneficiary() {\r\n    require(msg.sender == beneficiary, 'only the beneficiary can perform this function');\r\n    _;\r\n  }\r\n\r\n  /**\r\n    * @param _expiration Date time in seconds when timelock expires.\r\n    * @param _beneficiary Address permitted to withdraw funds after unlock.\r\n    * @param _owner The contract owner.\r\n  */\r\n  constructor(uint _expiration, address _beneficiary, address _owner) public {\r\n    expiration = _expiration;\r\n    beneficiary = _beneficiary;\r\n    owner = _owner;\r\n  }\r\n\r\n  /*** VIEW/PURE FUNCTIONS ***/\r\n\r\n  /**\r\n    * @dev Returns the address of the current owner.\r\n  */\r\n  function getOwner() public view returns (address) {\r\n    return owner;\r\n  }\r\n\r\n  /*** OTHER FUNCTIONS ***/\r\n\r\n  /**\r\n    * @dev Allows a user to deposit ETH or an ERC20 into the contract.\r\n           If _token is 0 address, deposit ETH.\r\n    * @param _amount The amount to deposit.\r\n    * @param _token The token to deposit.\r\n  */\r\n  function deposit(uint _amount, address _token) public payable {\r\n    if(_token == address(0)) {\r\n      require(msg.value == _amount, 'incorrect amount');\r\n      balances[_token] += _amount;\r\n    }\r\n    else {\r\n      IERC20 token = IERC20(_token);\r\n      require(token.transferFrom(msg.sender, address(this), _amount), 'transfer failed');\r\n      balances[_token] += _amount;\r\n    }\r\n  }\r\n\r\n  /**\r\n    * @dev Withdraw funds to msg.sender, but only if the timelock is expired\r\n           and msg.sender is the beneficiary.\r\n           If _token is 0 address, withdraw ETH.\r\n    * @param _amount The amount to withdraw.\r\n    * @param _token The token to withdraw.\r\n  */\r\n  function withdraw(uint _amount, address _token) public isExpired() onlyBeneficiary() {\r\n    console.log(\"msg.sender: \", msg.sender);\r\n\r\n    if(_token == address(0)) {\r\n      require(address(this).balance >= _amount, 'not enough balance');\r\n      balances[_token] -= _amount;\r\n      (bool success, ) = msg.sender.call.value(_amount)(\"\");\r\n      require(success, \"Transfer failed.\");\r\n    } else {\r\n      IERC20 token = IERC20(_token);\r\n      require(token.balanceOf(address(this)) >= _amount, 'not enough balance');\r\n      balances[_token] -= _amount;\r\n      require(token.transfer(msg.sender, _amount), 'transfer failed');\r\n    }\r\n  }\r\n}",
  "sourcePath": "C:\\Users\\kaden\\Documents\\code\\trustless-fund\\contracts\\TrustlessFund.sol",
  "compiler": {
    "name": "solc",
    "version": "0.5.16+commit.9c3226ce.Emscripten.clang"
  },
  "schemaVersion": "3.0.22",
  "updatedAt": "2020-03-23T21:37:41.390Z",
  "networkType": "ethereum",
  "devdoc": {
    "methods": {
      "constructor": {
        "params": {
          "_beneficiary": "Address permitted to withdraw funds after unlock.",
          "_expiration": "Date time in seconds when timelock expires.",
          "_owner": "The contract owner."
        }
      },
      "deposit(uint256,address)": {
        "details": "Allows a user to deposit ETH or an ERC20 into the contract. If _token is 0 address, deposit ETH.",
        "params": {
          "_amount": "The amount to deposit.",
          "_token": "The token to deposit."
        }
      },
      "getOwner()": {
        "details": "Returns the address of the current owner."
      },
      "withdraw(uint256,address)": {
        "details": "Withdraw funds to msg.sender, but only if the timelock is expired and msg.sender is the beneficiary. If _token is 0 address, withdraw ETH.",
        "params": {
          "_amount": "The amount to withdraw.",
          "_token": "The token to withdraw."
        }
      }
    }
  },
  "userdoc": {
    "methods": {}
  }
}