{
  "contractName": "TrustFundFactory",
  "abi": [
    {
      "constant": false,
      "inputs": [
        {
          "name": "expiration",
          "type": "uint256"
        }
      ],
      "name": "createFund",
      "outputs": [],
      "payable": false,
      "stateMutability": "nonpayable",
      "type": "function"
    }
  ],
  "bytecode": "0x608060405234801561001057600080fd5b50610295806100206000396000f3fe608060405234801561001057600080fd5b506004361061002b5760003560e01c806342fa071314610030575b600080fd5b61005c6004803603602081101561004657600080fd5b810190808035906020019092919050505061005e565b005b600073ffffffffffffffffffffffffffffffffffffffff16600080600154815260200190815260200160002060009054906101000a900473ffffffffffffffffffffffffffffffffffffffff1673ffffffffffffffffffffffffffffffffffffffff1614610134576040517f08c379a00000000000000000000000000000000000000000000000000000000081526004018080602001828103825260118152602001807f696420616c726561647920696e2075736500000000000000000000000000000081525060200191505060405180910390fd5b600081604051610143906101d5565b80828152602001915050604051809103906000f080158015610169573d6000803e3d6000fd5b50905080600080600154815260200190815260200160002060006101000a81548173ffffffffffffffffffffffffffffffffffffffff021916908373ffffffffffffffffffffffffffffffffffffffff1602179055506001600081548092919060010191905055505050565b6088806101e28339019056fe6080604052348015600f57600080fd5b50604051602080608883398101806040526020811015602d57600080fd5b8101908080519060200190929190505050806000819055505060358060536000396000f3fe6080604052600080fdfea165627a7a72305820ddebc208ecc9fc2ca6e42f7a1f409771edade3d55b85c0da2f3671594a151dff0029a165627a7a72305820361f1a54f78608f64ad8c634e7e499ca36273799c60dcf29a3267141c5be7e930029",
  "source": "pragma solidity 0.5.8;\r\n\r\nimport './TrustFund.sol';\r\n\r\ncontract TrustFundFactory {\r\n  mapping(uint => address) funds;\r\n  uint nextId;\r\n\r\n  // Create TrustFund\r\n  // Should be able to add an array of addresses for multisig emergency exit\r\n  function createFund(uint expiration) public {\r\n    require(funds[nextId] == address(0), 'id already in use');\r\n    TrustFund fund = new TrustFund(expiration);\r\n    funds[nextId] = address(fund);\r\n    nextId++;\r\n  }\r\n\r\n  // Get funds owned by an address\r\n\r\n  // Get a fund by id\r\n}",
  "sourcePath": "C:/Users/kaden/Documents/code/trust-fund/contracts/TrustFundFactory.sol",
  "compiler": {
    "name": "solc",
    "version": "0.5.8+commit.23d335f2.Emscripten.clang"
  },
  "schemaVersion": "3.0.17",
  "updatedAt": "2020-03-10T22:25:26.917Z",
  "networkType": "ethereum",
  "devdoc": {
    "methods": {}
  },
  "userdoc": {
    "methods": {}
  }
}